S01F00004164635F61746D656761333238705F6578616D706C65732E7372656364
S11300000C9434000C943E000C943E000C943E007E
S11300100C943E000C943E000C943E000C943E0064
S11300200C943E000C943E000C943E000C943E0054
S11300300C943E000C943E000C943E000C943E0044
S11300400C943E000C943E000C943E000C943E0034
S11300500C943E000C943E000C943E000C943E0024
S11300600C943E000C943E0011241FBECFEFD8E048
S1130070DEBFCDBF0E943B010C94CE030C94000064
S1130080611102C05B9801C05B9A9BB19F70282FDD
S1130090207F922B9BB945E04A95F1F700005A9ACC
S11300A095E09A95F1F700005A9840EF4A95F1F7D8
S11300B02BB1922F9F7040E1849F90011124292B32
S11300C02BB995E09A95F1F700005A9A45E04A95C4
S11300D0F1F700005A9890EF9A95F1F7611108C072
S11300E0843030F48FE39FE10197F1F700C0000002
S11300F008955B985A982FEF89EF90E02150804043
S11301009040E1F700C000008BB18F7080638BB921
S113011025E02A95F1F700005A9A85E08A95F1F7CF
S113012000005A9890EF9A95F1F78FE19EE40197B9
S1130130F1F700C0000095E09A95F1F700005A9A93
S113014025E02A95F1F700005A9880EF8A95F1F797
S11301508FE193E00197F1F700C0000095E09A95D4
S1130160F1F700005A9A25E02A95F1F700005A9811
S113017080EF8A95F1F78BB18F7080628BB995E02F
S11301809A95F1F700005A9A25E02A95F1F70000B4
S11301905A9880EF8A95F1F760E088E20E94400067
S11301A060E088E00E94400060E081E00E9440003E
S11301B060E08CE00E94400060E080E80E94400023
S11301C00895CF93DF93EC018881882339F0219639
S11301D061E00E94400089918111FACFDF91CF91B3
S11301E00895AC01FB01DB019B012B5F3F4F80E3D2
S11301F08D93A217B307E1F79A01ADECBCEC0E9412
S1130200BF039695879596958795969587959C01B6
S1130210220F331F880F991F880F991F880F991F6A
S1130220820F931F9A01281B390BC901805D8193AA
S11302309A010E94BF03AC01569547955695479580
S11302405695479541155105B9F608958F70806408
S113025080937C00EAE7F0E0808180648083808181
S113026086FDFDCF609178007091790080E090E088
S11302700E94C4020895CF93DF9300D000D0CDB77D
S1130280DEB78FEF84B98AB980E480937C0087E875
S113029080937A0078940E9479000AE710E0F801CC
S11302A0808184FF10C080818F7E808385E494E503
S11302B00E94E100FFEF23ED80E3F15020408040F5
S11302C0E1F700C0000080E00E9426010E94950230
S11302D0DC01CB01BE016F5F7F4F0E94F10060E043
S11302E080E80E94400061E08C810E94400061E04F
S11302F08B810E94400061E08A810E94400061E09D
S113030089810E94400061E08EE30E94400080E009
S11303100E94260120E030E040EA50E40E945203AB
S11303209B01AC010E94220220E030E040E85AE345
S11303300E94520320E030E048EC52E40E94520351
S11303400E948E02DC01CB01BE016F5F7F4F0E94D1
S1130350F10061E08B810E94400061E08EE20E9426
S1130360400061E08A810E94400061E089810E942E
S1130370400061E086E50E94400060E080EC0E945D
S1130380400081E00E9426010E949502DC01CB011D
S1130390BE016F5F7F4F0E94F10061E08C810E947B
S11303A0400061E08B810E94400061E08A810E94EC
S11303B0400061E089810E94400061E08EE30E9478
S11303C0400081E00E94260120E030E040EA50E451
S11303D00E9452039B01AC010E94220220E030E003
S11303E040E85AE30E94520320E030E048EC52E433
S11303F00E9452030E948E02DC01CB01BE016F5F9A
S11304007F4F0E94F10061E08B810E94400061E017
S11304108EE20E94400061E08A810E94400061E017
S113042089810E94400061E086E50E9440009FEFC0
S1130430E1EEF4E09150E040F040E1F700C000004C
S11304402ECF5058BB27AA270E9439020C941803B8
S11304500E940A0338F00E94110320F039F49F3FF0
S113046019F426F40C9407030EF4E095E7FB0C94BE
S11304700103E92F0E94290358F3BA17620773078F
S11304808407950720F079F4A6F50C944B030EF439
S1130490E0950B2EBA2FA02D0B01B90190010C0190
S11304A0CA01A0011124FF27591B99F0593F50F4A8
S11304B0503E68F11A16F040A22F232F342F442700
S11304C0585FF3CF469537952795A795F0405395F8
S11304D0C9F77EF41F16BA0B620B730B840BBAF0C8
S11304E09150A1F0FF0FBB1F661F771F881FC2F733
S11304F00EC0BA0F621F731F841F48F48795779547
S11305006795B795F7959E3F08F0B0CF9395880F00
S113051008F09927EE0F9795879508950E94950204
S11305206894B1110C944C0308950E94310388F02F
S11305309F5798F0B92F9927B751B0F0E1F0660FA3
S1130540771F881F991F1AF0BA95C9F714C0B130E4
S113055091F00E944B03B1E008950C944B03672F74
S1130560782F8827B85F39F0B93FCCF38695779513
S11305706795B395D9F73EF49095809570956195FC
S11305807F4F8F4F9F4F0895E89409C097FB3EF427
S113059090958095709561957F4F8F4F9F4F9923CC
S11305A0A9F0F92F96E9BB279395F695879577954A
S11305B06795B795F111F8CFFAF4BB0F11F460FF0A
S11305C01BC06F5F7F4F8F4F9F4F16C0882311F062
S11305D096E911C0772321F09EE8872F762F05C076
S11305E0662371F096E8862F70E060E02AF09A9511
S11305F0660F771F881FDAF7880F9695879597F906
S1130600089597F99F6780E870E060E008959FEF90
S113061080EC089500240A94161617061806090695
S1130620089500240A941216130614060506089564
S1130630092E0394000C11F4882352F0BB0F40F4EC
S1130640BF2B11F460FF04C06F5F7F4F8F4F9F4F2C
S1130650089557FD9058440F551F59F05F3F71F0AE
S11306604795880F97FB991F61F09F3F79F0879515
S11306700895121613061406551FF2CF4695F1DF9E
S113068008C0161617061806991FF1CF869571052E
S1130690610508940895E894BB2766277727CB0162
S11306A097F908950E9465030C9418030E940A03A5
S11306B038F00E94110320F0952311F00C940103EB
S11306C00C94070311240C944C030E94290370F327
S11306D0959FC1F3950F50E0551F629FF001729FE3
S11306E0BB27F00DB11D639FAA27F00DB11DAA1FF2
S11306F0649F6627B00DA11D661F829F2227B00D3F
S1130700A11D621F739FB00DA11D621F839FA00DC9
S1130710611D221F749F3327A00D611D231F849F19
S1130720600D211D822F762F6A2F11249F57504070
S11307309AF0F1F088234AF0EE0FFF1FBB1F661FEB
S1130740771F881F91505040A9F79E3F510580F0B4
S11307500C9401030C944C035F3FE4F3983ED4F3F0
S1130760869577956795B795F795E7959F5FC1F758
S1130770FE2B880F911D9695879597F90895A29F52
S1130780B001B39FC001A39F700D811D1124911D61
S1130790B29F700D811D1124911D0895F894FFCF0F
S9030000FC
