S01600004144435F41746D656761333238702E737265638B
S11300000C9434000C9446000C9446000C94460066
S11300100C9446000C9446000C9446000C94460044
S11300200C9446000C9446000C9446000C94460034
S11300300C9446000C9446000C9446000C94460024
S11300400C9446000C9446000C9446000C94460014
S11300500C9446000C941E010C9446000C9446002B
S11300600C9446000C94460011241FBECFEFD8E038
S1130070DEBFCDBF21E0A0E0B1E001C01D92A530FC
S1130080B207E1F70E944E010C9493010C94000016
S1130090611102C05A9801C05A9A9BB19F70282FCF
S11300A0207F922B9BB945E04A95F1F700005B9ABB
S11300B095E09A95F1F700005B9840EF4A95F1F7C7
S11300C02BB1922F9F7040E1849F90011124292B22
S11300D02BB995E09A95F1F700005B9A45E04A95B3
S11300E0F1F700005B9890EF9A95F1F7611108C061
S11300F0843030F48FE39FE10197F1F700C00000F2
S113010008955A985B982FEF89EF90E02150804032
S11301109040E1F700C000008BB18F7080638BB911
S113012025E02A95F1F700005B9A85E08A95F1F7BE
S113013000005B9890EF9A95F1F78FE19EE40197A8
S1130140F1F700C0000095E09A95F1F700005B9A82
S113015025E02A95F1F700005B9880EF8A95F1F786
S11301608FE193E00197F1F700C0000095E09A95C4
S1130170F1F700005B9A25E02A95F1F700005B98FF
S113018080EF8A95F1F78BB18F7080628BB995E01F
S11301909A95F1F700005B9A25E02A95F1F70000A3
S11301A05B9880EF8A95F1F760E088E20E9448004E
S11301B060E088E00E94480060E081E00E9448001E
S11301C060E08CE00E94480060E080E80E94480003
S11301D00895AC01FB01DB019B012B5F3F4F80E3E2
S11301E08D93A217B307E1F79A01ADECBCEC0E9422
S11301F084019695879596958795969587959C0104
S1130200220F331F880F991F880F991F880F991F7A
S1130210820F931F9A01281B390BC901805D8193BA
S11302209A010E948401AC015695479556954795CD
S11302305695479541155105B9F608951F920F92A9
S11302400FB60F9211242F933F934F935F936F93A5
S11302508F939F93EF93FF93E8E7F0E02081318140
S11302604081518163E1649FC001659F900D112419
S1130270892F9927820F931F909301018093000186
S1130280FF91EF919F918F916F915F914F913F916A
S11302902F910F900FBE0F901F9018958FEF8AB972
S11302A080EC80937C008FEE80937A0010927B0028
S11302B0EEE7F0E080818160808378940E94810081
S11302C02FEF81EE94E0215080409040E1F700C090
S11302D0000060E080E80E94480062E071E08091E4
S11302E00001909101010E94E900C2E0D1E061E0C7
S11302F08A810E94480061E089810E94480061E08F
S113030088810E944800DCCFA29FB001B39FC00146
S1130310A39F700D811D1124911DB29F700D811D2D
S10D03201124911D0895F894FFCFF5
S9030000FC
